{
  "address": "0xFeE5Ec013790f1DB62DCbc754EF3Fe9965C5EC6f",
  "abi": [
    {
      "inputs": [
        {
          "internalType": "address",
          "name": "challenge",
          "type": "address"
        }
      ],
      "name": "solve",
      "outputs": [],
      "stateMutability": "nonpayable",
      "type": "function"
    }
  ],
  "transactionHash": "0x25aaafb5fc7c3275e7482e8097135d738f2260d3470edf9a51e807e14de34627",
  "args": [],
  "numDeployments": 1,
  "solcInputHash": "9ae0ae120ee96c5870f0b98b6a2bbaed",
  "bytecode": "0x608060405234801561001057600080fd5b5060f68061001f6000396000f3fe6080604052348015600f57600080fd5b506004361060285760003560e01c80635a10731414602d575b600080fd5b603c60383660046092565b603e565b005b806001600160a01b03166382cb05c66040518163ffffffff1660e01b8152600401600060405180830381600087803b158015607857600080fd5b505af1158015608b573d6000803e3d6000fd5b5050505050565b60006020828403121560a357600080fd5b81356001600160a01b038116811460b957600080fd5b939250505056fea2646970667358221220e83e07cb81c8e0d6da0f18ad494ef65d0f535ca97f987c2da66ffaa61ff7630564736f6c63430008140033",
  "devdoc": {
    "kind": "dev",
    "methods": {},
    "version": 1
  },
  "userdoc": {
    "kind": "user",
    "methods": {},
    "version": 1
  },
  "storageLayout": {
    "storage": [],
    "types": null
  }
}