{
  "address": "0x8De822b512C301D2eC973D1E1550DebEA984b3ea",
  "abi": [
    {
      "inputs": [
        {
          "internalType": "address",
          "name": "exampleExternalContractAddress",
          "type": "address"
        }
      ],
      "stateMutability": "nonpayable",
      "type": "constructor"
    },
    {
      "anonymous": false,
      "inputs": [
        {
          "indexed": true,
          "internalType": "address",
          "name": "sender",
          "type": "address"
        },
        {
          "indexed": false,
          "internalType": "uint256",
          "name": "amount",
          "type": "uint256"
        }
      ],
      "name": "Stake",
      "type": "event"
    },
    {
      "inputs": [
        {
          "internalType": "address",
          "name": "",
          "type": "address"
        }
      ],
      "name": "balances",
      "outputs": [
        {
          "internalType": "uint256",
          "name": "",
          "type": "uint256"
        }
      ],
      "stateMutability": "view",
      "type": "function"
    },
    {
      "inputs": [],
      "name": "deadline",
      "outputs": [
        {
          "internalType": "uint256",
          "name": "",
          "type": "uint256"
        }
      ],
      "stateMutability": "view",
      "type": "function"
    },
    {
      "inputs": [],
      "name": "exampleExternalContract",
      "outputs": [
        {
          "internalType": "contract ExampleExternalContract",
          "name": "",
          "type": "address"
        }
      ],
      "stateMutability": "view",
      "type": "function"
    },
    {
      "inputs": [],
      "name": "execute",
      "outputs": [],
      "stateMutability": "nonpayable",
      "type": "function"
    },
    {
      "inputs": [],
      "name": "openForWithdraw",
      "outputs": [
        {
          "internalType": "bool",
          "name": "",
          "type": "bool"
        }
      ],
      "stateMutability": "view",
      "type": "function"
    },
    {
      "inputs": [],
      "name": "stake",
      "outputs": [],
      "stateMutability": "payable",
      "type": "function"
    },
    {
      "inputs": [],
      "name": "threshold",
      "outputs": [
        {
          "internalType": "uint256",
          "name": "",
          "type": "uint256"
        }
      ],
      "stateMutability": "view",
      "type": "function"
    },
    {
      "inputs": [],
      "name": "timeLeft",
      "outputs": [
        {
          "internalType": "uint256",
          "name": "",
          "type": "uint256"
        }
      ],
      "stateMutability": "view",
      "type": "function"
    },
    {
      "inputs": [],
      "name": "withdraw",
      "outputs": [],
      "stateMutability": "nonpayable",
      "type": "function"
    },
    {
      "stateMutability": "payable",
      "type": "receive"
    }
  ],
  "transactionHash": "0xaf16142a641aa9e084c3e8b225368f0c2f777eb08a53354462a58e3e8c7696f5",
  "args": [
    "0x7Ef86AB1A1e1d100739C3F5daCe9811bd4642fc3"
  ],
  "numDeployments": 1,
  "solcInputHash": "670a786d7b3d2e1d1bfb1620f8c0757c",
  "bytecode": "0x60a060405234801561001057600080fd5b5060405161089b38038061089b83398101604081905261002f9161006a565b600080546001600160a01b0319166001600160a01b038316179055610057426203f48061009a565b608052506002805460ff191690556100c1565b60006020828403121561007c57600080fd5b81516001600160a01b038116811461009357600080fd5b9392505050565b808201808211156100bb57634e487b7160e01b600052601160045260246000fd5b92915050565b6080516107b16100ea60003960008181610105015281816102c601526102f701526107b16000f3fe60806040526004361061008a5760003560e01c80633ccfd60b116100595780633ccfd60b1461012f57806342cde4e81461014457806361461954146101605780639876a643146101755780639f75f2271461019f57600080fd5b80631300a6d11461009e57806327e235e3146100c657806329dcb0cf146100f35780633a4b66f11461012757600080fd5b36610099576100976101d7565b005b600080fd5b3480156100aa57600080fd5b506100b36102c2565b6040519081526020015b60405180910390f35b3480156100d257600080fd5b506100b36100e13660046106e7565b60016020526000908152604090205481565b3480156100ff57600080fd5b506100b37f000000000000000000000000000000000000000000000000000000000000000081565b6100976101d7565b34801561013b57600080fd5b50610097610320565b34801561015057600080fd5b506100b3670de0b6b3a764000081565b34801561016c57600080fd5b5061009761055e565b34801561018157600080fd5b5060025461018f9060ff1681565b60405190151581526020016100bd565b3480156101ab57600080fd5b506000546101bf906001600160a01b031681565b6040516001600160a01b0390911681526020016100bd565b60006101e16102c2565b116102295760405162461bcd60e51b815260206004820152601360248201527229ba30b5b4b733903832b934b7b21037bb32b960691b60448201526064015b60405180910390fd5b600034116102675760405162461bcd60e51b815260206004820152600b60248201526a139bc8115512081cd95b9d60aa1b6044820152606401610220565b336000908152600160205260408120805434929061028690849061072d565b909155505060405134815233907febedb8b3c678666e7f36970bc8f57abf6d8fa2e828c0da91ea5b75bf68ed101a9060200160405180910390a2565b60007f000000000000000000000000000000000000000000000000000000000000000042106102f15750600090565b61031b427f0000000000000000000000000000000000000000000000000000000000000000610746565b905090565b60008054906101000a90046001600160a01b03166001600160a01b0316639d9a7fe96040518163ffffffff1660e01b8152600401602060405180830381865afa158015610371573d6000803e3d6000fd5b505050506040513d601f19601f820116820180604052508101906103959190610759565b156103d65760405162461bcd60e51b8152602060048201526011602482015270105b1c9958591e4818dbdb5c1b195d1959607a1b6044820152606401610220565b6103de6102c2565b156104225760405162461bcd60e51b8152602060048201526014602482015273111958591b1a5b99481b9bdd081c995858da195960621b6044820152606401610220565b60025460ff1661046b5760405162461bcd60e51b81526020600482015260146024820152732bb4ba34323930bbb0b639903737ba1037b832b760611b6044820152606401610220565b33600090815260016020526040902054806104c15760405162461bcd60e51b81526020600482015260166024820152754e6f2062616c616e636520746f20776974686472617760501b6044820152606401610220565b336000818152600160205260408082208290555190919083908381818185875af1925050503d8060008114610512576040519150601f19603f3d011682016040523d82523d6000602084013e610517565b606091505b505090508061055a5760405162461bcd60e51b815260206004820152600f60248201526e15da5d1a191c985dc819985a5b1959608a1b6044820152606401610220565b5050565b60008054906101000a90046001600160a01b03166001600160a01b0316639d9a7fe96040518163ffffffff1660e01b8152600401602060405180830381865afa1580156105af573d6000803e3d6000fd5b505050506040513d601f19601f820116820180604052508101906105d39190610759565b156106145760405162461bcd60e51b8152602060048201526011602482015270105b1c9958591e4818dbdb5c1b195d1959607a1b6044820152606401610220565b61061c6102c2565b156106605760405162461bcd60e51b8152602060048201526014602482015273111958591b1a5b99481b9bdd081c995858da195960621b6044820152606401610220565b670de0b6b3a764000047106106d85760008054906101000a90046001600160a01b03166001600160a01b031663522e1177476040518263ffffffff1660e01b81526004016000604051808303818588803b1580156106bd57600080fd5b505af11580156106d1573d6000803e3d6000fd5b5050505050565b6002805460ff19166001179055565b6000602082840312156106f957600080fd5b81356001600160a01b038116811461071057600080fd5b9392505050565b634e487b7160e01b600052601160045260246000fd5b8082018082111561074057610740610717565b92915050565b8181038181111561074057610740610717565b60006020828403121561076b57600080fd5b8151801515811461071057600080fdfea2646970667358221220b10be81ebaed17a7b178e16221dccacff84d0c11f0ecbc9e94d85efd8a79d2e964736f6c63430008140033",
  "devdoc": {
    "kind": "dev",
    "methods": {},
    "version": 1
  },
  "userdoc": {
    "kind": "user",
    "methods": {},
    "version": 1
  },
  "storageLayout": {
    "storage": [
      {
        "astId": 19,
        "contract": "contracts/Staker.sol:Staker",
        "label": "exampleExternalContract",
        "offset": 0,
        "slot": "0",
        "type": "t_contract(ExampleExternalContract)12"
      },
      {
        "astId": 23,
        "contract": "contracts/Staker.sol:Staker",
        "label": "balances",
        "offset": 0,
        "slot": "1",
        "type": "t_mapping(t_address,t_uint256)"
      },
      {
        "astId": 30,
        "contract": "contracts/Staker.sol:Staker",
        "label": "openForWithdraw",
        "offset": 0,
        "slot": "2",
        "type": "t_bool"
      }
    ],
    "types": {
      "t_address": {
        "encoding": "inplace",
        "label": "address",
        "numberOfBytes": "20"
      },
      "t_bool": {
        "encoding": "inplace",
        "label": "bool",
        "numberOfBytes": "1"
      },
      "t_contract(ExampleExternalContract)12": {
        "encoding": "inplace",
        "label": "contract ExampleExternalContract",
        "numberOfBytes": "20"
      },
      "t_mapping(t_address,t_uint256)": {
        "encoding": "mapping",
        "key": "t_address",
        "label": "mapping(address => uint256)",
        "numberOfBytes": "32",
        "value": "t_uint256"
      },
      "t_uint256": {
        "encoding": "inplace",
        "label": "uint256",
        "numberOfBytes": "32"
      }
    }
  }
}